{
  "contractName": "VotingContract",
  "abi": [
    {
      "inputs": [
        {
          "internalType": "string[]",
          "name": "candidateNames",
          "type": "string[]"
        }
      ],
      "stateMutability": "nonpayable",
      "type": "constructor"
    },
    {
      "anonymous": false,
      "inputs": [
        {
          "indexed": false,
          "internalType": "uint256",
          "name": "candidateId",
          "type": "uint256"
        },
        {
          "indexed": false,
          "internalType": "string",
          "name": "name",
          "type": "string"
        }
      ],
      "name": "CandidateAdded",
      "type": "event"
    },
    {
      "anonymous": false,
      "inputs": [
        {
          "indexed": false,
          "internalType": "uint256",
          "name": "candidateId",
          "type": "uint256"
        }
      ],
      "name": "Voted",
      "type": "event"
    },
    {
      "inputs": [
        {
          "internalType": "uint256",
          "name": "",
          "type": "uint256"
        }
      ],
      "name": "candidates",
      "outputs": [
        {
          "internalType": "uint256",
          "name": "id",
          "type": "uint256"
        },
        {
          "internalType": "string",
          "name": "name",
          "type": "string"
        },
        {
          "internalType": "uint256",
          "name": "voteCount",
          "type": "uint256"
        }
      ],
      "stateMutability": "view",
      "type": "function",
      "constant": true
    },
    {
      "inputs": [],
      "name": "candidatesCount",
      "outputs": [
        {
          "internalType": "uint256",
          "name": "",
          "type": "uint256"
        }
      ],
      "stateMutability": "view",
      "type": "function",
      "constant": true
    },
    {
      "inputs": [],
      "name": "owner",
      "outputs": [
        {
          "internalType": "address",
          "name": "",
          "type": "address"
        }
      ],
      "stateMutability": "view",
      "type": "function",
      "constant": true
    },
    {
      "inputs": [
        {
          "internalType": "string",
          "name": "_name",
          "type": "string"
        }
      ],
      "name": "addCandidate",
      "outputs": [],
      "stateMutability": "nonpayable",
      "type": "function"
    },
    {
      "inputs": [
        {
          "internalType": "uint256",
          "name": "candidateId",
          "type": "uint256"
        }
      ],
      "name": "vote",
      "outputs": [],
      "stateMutability": "nonpayable",
      "type": "function"
    },
    {
      "inputs": [],
      "name": "getCandidates",
      "outputs": [
        {
          "components": [
            {
              "internalType": "uint256",
              "name": "id",
              "type": "uint256"
            },
            {
              "internalType": "string",
              "name": "name",
              "type": "string"
            },
            {
              "internalType": "uint256",
              "name": "voteCount",
              "type": "uint256"
            }
          ],
          "internalType": "struct VotingContract.Candidate[]",
          "name": "",
          "type": "tuple[]"
        }
      ],
      "stateMutability": "view",
      "type": "function",
      "constant": true
    },
    {
      "inputs": [],
      "name": "getWinner",
      "outputs": [
        {
          "internalType": "string",
          "name": "winnerName",
          "type": "string"
        },
        {
          "internalType": "uint256",
          "name": "winnerVotes",
          "type": "uint256"
        }
      ],
      "stateMutability": "view",
      "type": "function",
      "constant": true
    }
  ],
  "bytecode": "0x60806040523480156200001157600080fd5b506040516200155a3803806200155a83398181016040528101906200003791906200036b565b33600260006101000a81548173ffffffffffffffffffffffffffffffffffffffff021916908373ffffffffffffffffffffffffffffffffffffffff16021790555060005b8151811015620000ed57620000d7828281518110620000c3577f4e487b7100000000000000000000000000000000000000000000000000000000600052603260045260246000fd5b6020026020010151620000f560201b60201c565b8080620000e4906200055e565b9150506200007b565b50506200064a565b600160008154809291906200010a906200055e565b9190505550604051806060016040528060015481526020018281526020016000815250600080600154815260200190815260200160002060008201518160000155602082015181600101908051906020019062000169929190620001b7565b50604082015181600201559050507fe83b2a43e7e82d975c8a0a6d2f045153c869e111136a34d1889ab7b598e396a360015482604051620001ac92919062000402565b60405180910390a150565b828054620001c59062000528565b90600052602060002090601f016020900481019282620001e9576000855562000235565b82601f106200020457805160ff191683800117855562000235565b8280016001018555821562000235579182015b828111156200023457825182559160200191906001019062000217565b5b50905062000244919062000248565b5090565b5b808211156200026357600081600090555060010162000249565b5090565b60006200027e62000278846200046a565b62000436565b9050808382526020820190508260005b85811015620002c25781518501620002a788826200033e565b8452602084019350602083019250506001810190506200028e565b5050509392505050565b6000620002e3620002dd8462000499565b62000436565b905082815260208101848484011115620002fc57600080fd5b62000309848285620004f2565b509392505050565b600082601f8301126200032357600080fd5b81516200033584826020860162000267565b91505092915050565b600082601f8301126200035057600080fd5b815162000362848260208601620002cc565b91505092915050565b6000602082840312156200037e57600080fd5b600082015167ffffffffffffffff8111156200039957600080fd5b620003a78482850162000311565b91505092915050565b6000620003bd82620004cc565b620003c98185620004d7565b9350620003db818560208601620004f2565b620003e68162000639565b840191505092915050565b620003fc81620004e8565b82525050565b6000604082019050620004196000830185620003f1565b81810360208301526200042d8184620003b0565b90509392505050565b6000604051905081810181811067ffffffffffffffff8211171562000460576200045f6200060a565b5b8060405250919050565b600067ffffffffffffffff8211156200048857620004876200060a565b5b602082029050602081019050919050565b600067ffffffffffffffff821115620004b757620004b66200060a565b5b601f19601f8301169050602081019050919050565b600081519050919050565b600082825260208201905092915050565b6000819050919050565b60005b8381101562000512578082015181840152602081019050620004f5565b8381111562000522576000848401525b50505050565b600060028204905060018216806200054157607f821691505b60208210811415620005585762000557620005db565b5b50919050565b60006200056b82620004e8565b91507fffffffffffffffffffffffffffffffffffffffffffffffffffffffffffffffff821415620005a157620005a0620005ac565b5b600182019050919050565b7f4e487b7100000000000000000000000000000000000000000000000000000000600052601160045260246000fd5b7f4e487b7100000000000000000000000000000000000000000000000000000000600052602260045260246000fd5b7f4e487b7100000000000000000000000000000000000000000000000000000000600052604160045260246000fd5b6000601f19601f8301169050919050565b610f00806200065a6000396000f3fe608060405234801561001057600080fd5b506004361061007d5760003560e01c80633477ee2e1161005b5780633477ee2e146100da578063462e91ec1461010c5780638da5cb5b146101285780638e7ea5b2146101465761007d565b80630121b93f1461008257806306a49fce1461009e5780632d35a8a2146100bc575b600080fd5b61009c600480360381019061009791906108a4565b610165565b005b6100a661021b565b6040516100b39190610b06565b60405180910390f35b6100c46103db565b6040516100d19190610b98565b60405180910390f35b6100f460048036038101906100ef91906108a4565b6103e1565b60405161010393929190610be3565b60405180910390f35b61012660048036038101906101219190610863565b610493565b005b61013061052f565b60405161013d9190610aeb565b60405180910390f35b61014e610555565b60405161015c929190610b28565b60405180910390f35b60008111801561017757506001548111155b6101b6576040517f08c379a00000000000000000000000000000000000000000000000000000000081526004016101ad90610b78565b60405180910390fd5b60008082815260200190815260200160002060020160008154809291906101dc90610dcc565b91905055507f7f511e347bf51eed3be100b3194247d5207f05f3b33de7d31e3e8ee73199a049816040516102109190610b98565b60405180910390a150565b6060600060015467ffffffffffffffff811115610261577f4e487b7100000000000000000000000000000000000000000000000000000000600052604160045260246000fd5b60405190808252806020026020018201604052801561029a57816020015b610287610722565b81526020019060019003908161027f5790505b5090506000600190505b60015481116103d357600080828152602001908152602001600020604051806060016040529081600082015481526020016001820180546102e490610d9a565b80601f016020809104026020016040519081016040528092919081815260200182805461031090610d9a565b801561035d5780601f106103325761010080835404028352916020019161035d565b820191906000526020600020905b81548152906001019060200180831161034057829003601f168201915b505050505081526020016002820154815250508260018361037e9190610ce8565b815181106103b5577f4e487b7100000000000000000000000000000000000000000000000000000000600052603260045260246000fd5b602002602001018190525080806103cb90610dcc565b9150506102a4565b508091505090565b60015481565b600060205280600052604060002060009150905080600001549080600101805461040a90610d9a565b80601f016020809104026020016040519081016040528092919081815260200182805461043690610d9a565b80156104835780601f1061045857610100808354040283529160200191610483565b820191906000526020600020905b81548152906001019060200180831161046657829003601f168201915b5050505050908060020154905083565b600260009054906101000a900473ffffffffffffffffffffffffffffffffffffffff1673ffffffffffffffffffffffffffffffffffffffff163373ffffffffffffffffffffffffffffffffffffffff1614610523576040517f08c379a000000000000000000000000000000000000000000000000000000000815260040161051a90610b58565b60405180910390fd5b61052c81610666565b50565b600260009054906101000a900473ffffffffffffffffffffffffffffffffffffffff1681565b60606000806000905060606000600190505b600154811161065957826000808381526020019081526020016000206002015411156106465760008082815260200190815260200160002060020154925060008082815260200190815260200160002060010180546105c590610d9a565b80601f01602080910402602001604051908101604052809291908181526020018280546105f190610d9a565b801561063e5780601f106106135761010080835404028352916020019161063e565b820191906000526020600020905b81548152906001019060200180831161062157829003601f168201915b505050505091505b808061065190610dcc565b915050610567565b5080829350935050509091565b6001600081548092919061067990610dcc565b919050555060405180606001604052806001548152602001828152602001600081525060008060015481526020019081526020016000206000820151816000015560208201518160010190805190602001906106d6929190610743565b50604082015181600201559050507fe83b2a43e7e82d975c8a0a6d2f045153c869e111136a34d1889ab7b598e396a360015482604051610717929190610bb3565b60405180910390a150565b60405180606001604052806000815260200160608152602001600081525090565b82805461074f90610d9a565b90600052602060002090601f01602090048101928261077157600085556107b8565b82601f1061078a57805160ff19168380011785556107b8565b828001600101855582156107b8579182015b828111156107b757825182559160200191906001019061079c565b5b5090506107c591906107c9565b5090565b5b808211156107e25760008160009055506001016107ca565b5090565b60006107f96107f484610c52565b610c21565b90508281526020810184848401111561081157600080fd5b61081c848285610d58565b509392505050565b600082601f83011261083557600080fd5b81356108458482602086016107e6565b91505092915050565b60008135905061085d81610eb3565b92915050565b60006020828403121561087557600080fd5b600082013567ffffffffffffffff81111561088f57600080fd5b61089b84828501610824565b91505092915050565b6000602082840312156108b657600080fd5b60006108c48482850161084e565b91505092915050565b60006108d98383610a7d565b905092915050565b6108ea81610d1c565b82525050565b60006108fb82610c92565b6109058185610cb5565b93508360208202850161091785610c82565b8060005b85811015610953578484038952815161093485826108cd565b945061093f83610ca8565b925060208a0199505060018101905061091b565b50829750879550505050505092915050565b600061097082610c9d565b61097a8185610cc6565b935061098a818560208601610d67565b61099381610ea2565b840191505092915050565b60006109a982610c9d565b6109b38185610cd7565b93506109c3818560208601610d67565b6109cc81610ea2565b840191505092915050565b60006109e4602683610cd7565b91507f4f6e6c7920746865206f776e65722063616e20706572666f726d20746869732060008301527f616374696f6e00000000000000000000000000000000000000000000000000006020830152604082019050919050565b6000610a4a601583610cd7565b91507f496e76616c69642063616e6469646174652049442e00000000000000000000006000830152602082019050919050565b6000606083016000830151610a956000860182610acd565b5060208301518482036020860152610aad8282610965565b9150506040830151610ac26040860182610acd565b508091505092915050565b610ad681610d4e565b82525050565b610ae581610d4e565b82525050565b6000602082019050610b0060008301846108e1565b92915050565b60006020820190508181036000830152610b2081846108f0565b905092915050565b60006040820190508181036000830152610b42818561099e565b9050610b516020830184610adc565b9392505050565b60006020820190508181036000830152610b71816109d7565b9050919050565b60006020820190508181036000830152610b9181610a3d565b9050919050565b6000602082019050610bad6000830184610adc565b92915050565b6000604082019050610bc86000830185610adc565b8181036020830152610bda818461099e565b90509392505050565b6000606082019050610bf86000830186610adc565b8181036020830152610c0a818561099e565b9050610c196040830184610adc565b949350505050565b6000604051905081810181811067ffffffffffffffff82111715610c4857610c47610e73565b5b8060405250919050565b600067ffffffffffffffff821115610c6d57610c6c610e73565b5b601f19601f8301169050602081019050919050565b6000819050602082019050919050565b600081519050919050565b600081519050919050565b6000602082019050919050565b600082825260208201905092915050565b600082825260208201905092915050565b600082825260208201905092915050565b6000610cf382610d4e565b9150610cfe83610d4e565b925082821015610d1157610d10610e15565b5b828203905092915050565b6000610d2782610d2e565b9050919050565b600073ffffffffffffffffffffffffffffffffffffffff82169050919050565b6000819050919050565b82818337600083830152505050565b60005b83811015610d85578082015181840152602081019050610d6a565b83811115610d94576000848401525b50505050565b60006002820490506001821680610db257607f821691505b60208210811415610dc657610dc5610e44565b5b50919050565b6000610dd782610d4e565b91507fffffffffffffffffffffffffffffffffffffffffffffffffffffffffffffffff821415610e0a57610e09610e15565b5b600182019050919050565b7f4e487b7100000000000000000000000000000000000000000000000000000000600052601160045260246000fd5b7f4e487b7100000000000000000000000000000000000000000000000000000000600052602260045260246000fd5b7f4e487b7100000000000000000000000000000000000000000000000000000000600052604160045260246000fd5b6000601f19601f8301169050919050565b610ebc81610d4e565b8114610ec757600080fd5b5056fea2646970667358221220a1a3aa1004c09a74db56359e4ba3b1410f5b4681ac960faf62814af66dcab98164736f6c63430008000033",
  "immutableReferences": {},
  "source": "// SPDX-License-Identifier: MIT\r\npragma solidity ^0.8.0;\r\n\r\ncontract VotingContract {\r\n\r\n    // Structure to store candidate details\r\n    struct Candidate {\r\n        uint id;\r\n        string name;\r\n        uint voteCount;\r\n    }\r\n\r\n    // Mapping to store candidates using their ID\r\n    mapping(uint => Candidate) public candidates;\r\n\r\n    \r\n\r\n    // Total number of candidates\r\n    uint public candidatesCount;\r\n\r\n    // Address of the owner (creator of the contract)\r\n    address public owner;\r\n\r\n    // Events to log important actions\r\n    event Voted(uint candidateId); \r\n    event CandidateAdded(uint candidateId, string name);\r\n\r\n    // Constructor to initialize the contract with a list of candidates\r\n    constructor(string[] memory candidateNames) {\r\n        owner = msg.sender; // The contract deployer is the owner\r\n        for (uint i = 0; i < candidateNames.length; i++) {\r\n            _addCandidate(candidateNames[i]);\r\n        }\r\n    }\r\n\r\n    // Modifier to restrict certain functions to the owner only\r\n    modifier onlyOwner() {\r\n        require(msg.sender == owner, \"Only the owner can perform this action\");\r\n        _;\r\n    }\r\n\r\n    // Internal function to add a candidate to the list\r\n    function _addCandidate(string memory _name) internal {\r\n        candidatesCount++;\r\n        candidates[candidatesCount] = Candidate(candidatesCount, _name, 0);\r\n        emit CandidateAdded(candidatesCount, _name); // Emit event when a candidate is added\r\n    }\r\n\r\n    // Public function to add a new candidate (only owner can do this)\r\n    function addCandidate(string memory _name) public onlyOwner {\r\n        _addCandidate(_name);\r\n    }\r\n\r\n    // Public function for voting; requires that the voter hasn't voted yet and the candidate ID is valid\r\n    function vote(uint candidateId) public {\r\n    // Ensure the candidate ID is valid\r\n    require(candidateId > 0 && candidateId <= candidatesCount, \"Invalid candidate ID.\");\r\n\r\n    // Increment the vote count for the selected candidate\r\n    candidates[candidateId].voteCount++;\r\n\r\n    emit Voted(candidateId); // Emit event when a vote is cast\r\n}\r\n\r\n\r\n    // Public function to get all candidates\r\n    function getCandidates() public view returns (Candidate[] memory) {\r\n        // Create an array to hold all the candidates\r\n        Candidate[] memory allCandidates = new Candidate[](candidatesCount);\r\n        \r\n        for (uint i = 1; i <= candidatesCount; i++) {\r\n            allCandidates[i - 1] = candidates[i]; // Populate the array with candidate data\r\n        }\r\n        \r\n        return allCandidates; // Return the list of candidates\r\n    }\r\n\r\n    // Public function to get the winner based on vote count\r\n    function getWinner() public view returns (string memory winnerName, uint winnerVotes) {\r\n        uint highestVoteCount = 0;\r\n        string memory winner;\r\n\r\n        // Loop through all candidates to find the one with the highest vote count\r\n        for (uint i = 1; i <= candidatesCount; i++) {\r\n            if (candidates[i].voteCount > highestVoteCount) {\r\n                highestVoteCount = candidates[i].voteCount;\r\n                winner = candidates[i].name;\r\n            }\r\n        }\r\n        \r\n        return (winner, highestVoteCount); // Return the winner's name and vote count\r\n    }\r\n}\r\n",
  "sourcePath": "C:\\Users\\anujs\\Desktop\\Project\\Blockchain\\contracts\\VotingContract.sol",
  "compiler": {
    "name": "solc",
    "version": "0.8.0+commit.c7dfd78e.Emscripten.clang"
  },
  "schemaVersion": "3.4.16",
  "updatedAt": "2024-12-04T04:16:00.494Z",
  "networkType": "ethereum",
  "devdoc": {
    "kind": "dev",
    "methods": {},
    "version": 1
  },
  "userdoc": {
    "kind": "user",
    "methods": {},
    "version": 1
  }
}